{
  "contractName": "ApprovalMatrix",
  "abi": [
    {
      "inputs": [
        {
          "internalType": "contract Token",
          "name": "_token",
          "type": "address"
        }
      ],
      "payable": false,
      "stateMutability": "nonpayable",
      "type": "constructor"
    },
    {
      "anonymous": false,
      "inputs": [
        {
          "indexed": false,
          "internalType": "uint256",
          "name": "id",
          "type": "uint256"
        },
        {
          "indexed": false,
          "internalType": "address",
          "name": "_account",
          "type": "address"
        },
        {
          "indexed": false,
          "internalType": "string",
          "name": "_employeeName",
          "type": "string"
        },
        {
          "indexed": false,
          "internalType": "string",
          "name": "_employeeEmail",
          "type": "string"
        },
        {
          "indexed": false,
          "internalType": "string",
          "name": "_employeeRole",
          "type": "string"
        },
        {
          "indexed": false,
          "internalType": "uint256",
          "name": "_employeePower",
          "type": "uint256"
        }
      ],
      "name": "employeeAdded",
      "type": "event"
    },
    {
      "constant": true,
      "inputs": [],
      "name": "employeeCount",
      "outputs": [
        {
          "internalType": "uint256",
          "name": "",
          "type": "uint256"
        }
      ],
      "payable": false,
      "stateMutability": "view",
      "type": "function"
    },
    {
      "constant": true,
      "inputs": [
        {
          "internalType": "uint256",
          "name": "",
          "type": "uint256"
        }
      ],
      "name": "employees",
      "outputs": [
        {
          "internalType": "uint256",
          "name": "id",
          "type": "uint256"
        },
        {
          "internalType": "address",
          "name": "EmployerAdress",
          "type": "address"
        },
        {
          "internalType": "string",
          "name": "EmployeeName",
          "type": "string"
        },
        {
          "internalType": "string",
          "name": "EmployeeEmail",
          "type": "string"
        },
        {
          "internalType": "string",
          "name": "EmployeeRole",
          "type": "string"
        },
        {
          "internalType": "uint256",
          "name": "EmployeePower",
          "type": "uint256"
        }
      ],
      "payable": false,
      "stateMutability": "view",
      "type": "function"
    },
    {
      "constant": true,
      "inputs": [],
      "name": "name",
      "outputs": [
        {
          "internalType": "string",
          "name": "",
          "type": "string"
        }
      ],
      "payable": false,
      "stateMutability": "view",
      "type": "function"
    },
    {
      "constant": true,
      "inputs": [],
      "name": "rate",
      "outputs": [
        {
          "internalType": "uint256",
          "name": "",
          "type": "uint256"
        }
      ],
      "payable": false,
      "stateMutability": "view",
      "type": "function"
    },
    {
      "constant": true,
      "inputs": [],
      "name": "token",
      "outputs": [
        {
          "internalType": "contract Token",
          "name": "",
          "type": "address"
        }
      ],
      "payable": false,
      "stateMutability": "view",
      "type": "function"
    },
    {
      "constant": false,
      "inputs": [
        {
          "internalType": "string",
          "name": "_employeeName",
          "type": "string"
        },
        {
          "internalType": "string",
          "name": "_employeeEmail",
          "type": "string"
        },
        {
          "internalType": "string",
          "name": "_employeeRole",
          "type": "string"
        }
      ],
      "name": "AddEmployee",
      "outputs": [],
      "payable": true,
      "stateMutability": "payable",
      "type": "function"
    }
  ],
  "bytecode": "0x60806040526040518060400160405280600f81526020017f417070726f76616c204d617472697800000000000000000000000000000000008152506000908051906020019061004f9291906100dc565b50606460025534801561006157600080fd5b50604051610f62380380610f628339818101604052602081101561008457600080fd5b810190808051906020019092919050505080600160006101000a81548173ffffffffffffffffffffffffffffffffffffffff021916908373ffffffffffffffffffffffffffffffffffffffff16021790555050610181565b828054600181600116156101000203166002900490600052602060002090601f016020900481019282601f1061011d57805160ff191683800117855561014b565b8280016001018555821561014b579182015b8281111561014a57825182559160200191906001019061012f565b5b509050610158919061015c565b5090565b61017e91905b8082111561017a576000816000905550600101610162565b5090565b90565b610dd2806101906000396000f3fe6080604052600436106100555760003560e01c806304b12b511461005a57806306fdde03146102435780632c4e722e146102d35780634739326b146102fe5780639047bf58146104cb578063fc0c546a146104f6575b600080fd5b6102416004803603606081101561007057600080fd5b810190808035906020019064010000000081111561008d57600080fd5b82018360208201111561009f57600080fd5b803590602001918460018302840111640100000000831117156100c157600080fd5b91908080601f016020809104026020016040519081016040528093929190818152602001838380828437600081840152601f19601f8201169050808301925050505050505091929192908035906020019064010000000081111561012457600080fd5b82018360208201111561013657600080fd5b8035906020019184600183028401116401000000008311171561015857600080fd5b91908080601f016020809104026020016040519081016040528093929190818152602001838380828437600081840152601f19601f820116905080830192505050505050509192919290803590602001906401000000008111156101bb57600080fd5b8201836020820111156101cd57600080fd5b803590602001918460018302840111640100000000831117156101ef57600080fd5b91908080601f016020809104026020016040519081016040528093929190818152602001838380828437600081840152601f19601f82011690508083019250505050505050919291929050505061054d565b005b34801561024f57600080fd5b50610258610a04565b6040518080602001828103825283818151815260200191508051906020019080838360005b8381101561029857808201518184015260208101905061027d565b50505050905090810190601f1680156102c55780820380516001836020036101000a031916815260200191505b509250505060405180910390f35b3480156102df57600080fd5b506102e8610aa2565b6040518082815260200191505060405180910390f35b34801561030a57600080fd5b506103376004803603602081101561032157600080fd5b8101908080359060200190929190505050610aa8565b604051808781526020018673ffffffffffffffffffffffffffffffffffffffff1673ffffffffffffffffffffffffffffffffffffffff168152602001806020018060200180602001858152602001848103845288818151815260200191508051906020019080838360005b838110156103bd5780820151818401526020810190506103a2565b50505050905090810190601f1680156103ea5780820380516001836020036101000a031916815260200191505b50848103835287818151815260200191508051906020019080838360005b83811015610423578082015181840152602081019050610408565b50505050905090810190601f1680156104505780820380516001836020036101000a031916815260200191505b50848103825286818151815260200191508051906020019080838360005b8381101561048957808201518184015260208101905061046e565b50505050905090810190601f1680156104b65780820380516001836020036101000a031916815260200191505b50995050505050505050505060405180910390f35b3480156104d757600080fd5b506104e0610ccc565b6040518082815260200191505060405180910390f35b34801561050257600080fd5b5061050b610cd2565b604051808273ffffffffffffffffffffffffffffffffffffffff1673ffffffffffffffffffffffffffffffffffffffff16815260200191505060405180910390f35b60006002543402905080600160009054906101000a900473ffffffffffffffffffffffffffffffffffffffff1673ffffffffffffffffffffffffffffffffffffffff166370a08231306040518263ffffffff1660e01b8152600401808273ffffffffffffffffffffffffffffffffffffffff1673ffffffffffffffffffffffffffffffffffffffff16815260200191505060206040518083038186803b1580156105f657600080fd5b505afa15801561060a573d6000803e3d6000fd5b505050506040513d602081101561062057600080fd5b8101908080519060200190929190505050101561063c57600080fd5b600160009054906101000a900473ffffffffffffffffffffffffffffffffffffffff1673ffffffffffffffffffffffffffffffffffffffff1663a9059cbb33836040518363ffffffff1660e01b8152600401808373ffffffffffffffffffffffffffffffffffffffff1673ffffffffffffffffffffffffffffffffffffffff16815260200182815260200192505050602060405180830381600087803b1580156106e557600080fd5b505af11580156106f9573d6000803e3d6000fd5b505050506040513d602081101561070f57600080fd5b8101908080519060200190929190505050506004600081548092919060010191905055506040518060c0016040528060045481526020013373ffffffffffffffffffffffffffffffffffffffff168152602001858152602001848152602001838152602001828152506003600060045481526020019081526020016000206000820151816000015560208201518160010160006101000a81548173ffffffffffffffffffffffffffffffffffffffff021916908373ffffffffffffffffffffffffffffffffffffffff16021790555060408201518160020190805190602001906107fa929190610cf8565b506060820151816003019080519060200190610817929190610cf8565b506080820151816004019080519060200190610834929190610cf8565b5060a082015181600501559050507f055c8e3bd4f757dc019d75e2edc6811bbd87cef97ef20dc80a53506e34a94a4a6004543386868686604051808781526020018673ffffffffffffffffffffffffffffffffffffffff1673ffffffffffffffffffffffffffffffffffffffff168152602001806020018060200180602001858152602001848103845288818151815260200191508051906020019080838360005b838110156108f15780820151818401526020810190506108d6565b50505050905090810190601f16801561091e5780820380516001836020036101000a031916815260200191505b50848103835287818151815260200191508051906020019080838360005b8381101561095757808201518184015260208101905061093c565b50505050905090810190601f1680156109845780820380516001836020036101000a031916815260200191505b50848103825286818151815260200191508051906020019080838360005b838110156109bd5780820151818401526020810190506109a2565b50505050905090810190601f1680156109ea5780820380516001836020036101000a031916815260200191505b50995050505050505050505060405180910390a150505050565b60008054600181600116156101000203166002900480601f016020809104026020016040519081016040528092919081815260200182805460018160011615610100020316600290048015610a9a5780601f10610a6f57610100808354040283529160200191610a9a565b820191906000526020600020905b815481529060010190602001808311610a7d57829003601f168201915b505050505081565b60025481565b60036020528060005260406000206000915090508060000154908060010160009054906101000a900473ffffffffffffffffffffffffffffffffffffffff1690806002018054600181600116156101000203166002900480601f016020809104026020016040519081016040528092919081815260200182805460018160011615610100020316600290048015610b805780601f10610b5557610100808354040283529160200191610b80565b820191906000526020600020905b815481529060010190602001808311610b6357829003601f168201915b505050505090806003018054600181600116156101000203166002900480601f016020809104026020016040519081016040528092919081815260200182805460018160011615610100020316600290048015610c1e5780601f10610bf357610100808354040283529160200191610c1e565b820191906000526020600020905b815481529060010190602001808311610c0157829003601f168201915b505050505090806004018054600181600116156101000203166002900480601f016020809104026020016040519081016040528092919081815260200182805460018160011615610100020316600290048015610cbc5780601f10610c9157610100808354040283529160200191610cbc565b820191906000526020600020905b815481529060010190602001808311610c9f57829003601f168201915b5050505050908060050154905086565b60045481565b600160009054906101000a900473ffffffffffffffffffffffffffffffffffffffff1681565b828054600181600116156101000203166002900490600052602060002090601f016020900481019282601f10610d3957805160ff1916838001178555610d67565b82800160010185558215610d67579182015b82811115610d66578251825591602001919060010190610d4b565b5b509050610d749190610d78565b5090565b610d9a91905b80821115610d96576000816000905550600101610d7e565b5090565b9056fea265627a7a7231582049f61fb411a9404f3fc9a2c97d7ce7b7e013028ae4b7fab82d70c5823ba7836664736f6c63430005100032",
  "source": "pragma solidity ^0.5.0;\r\n\r\nimport \"./Token.sol\";\r\n\r\ncontract ApprovalMatrix {\r\n    string  public name = \"Approval Matrix\";\r\n\r\n    Token public token;\r\n    uint public rate = 100;\r\n\r\n    mapping(uint => EmployeeMatrix) public employees;\r\n    // Store employee Count\r\n    uint public employeeCount;\r\n\r\n    struct EmployeeMatrix {\r\n        uint id;\r\n        address EmployerAdress;\r\n        string EmployeeName;\r\n        string EmployeeEmail;\r\n        string EmployeeRole;\r\n        uint EmployeePower;\r\n    }\r\n\r\n    event employeeAdded(\r\n            uint id,\r\n    \t    address _account,\r\n    \t    string _employeeName,\r\n    \t    string _employeeEmail,\r\n    \t    string _employeeRole,\r\n    \t    uint _employeePower\r\n\r\n    );\r\n\r\n    constructor(Token _token) public {\r\n        token = _token;\r\n    }\r\n\r\n\r\n    function AddEmployee(string memory _employeeName, string memory _employeeEmail, string memory _employeeRole) public payable {\r\n        // Calculate the number of tokens for Employer (i.e.: EmployeePower)\r\n        uint tokenAmount = msg.value * rate;\r\n        \r\n        // Require that ApprovalMatrix has enough tokens\r\n        require(token.balanceOf(address(this)) >= tokenAmount);\r\n\r\n        // Transfer tokens to the user\r\n        token.transfer(msg.sender, tokenAmount);\r\n\r\n        //increment employees count\r\n        employeeCount ++;\r\n\r\n        //Add the employer profile to the contract\r\n        employees[employeeCount] = EmployeeMatrix(employeeCount, msg.sender, _employeeName, _employeeEmail, _employeeRole, tokenAmount);\r\n\r\n        // Trigger event\r\n        emit employeeAdded(employeeCount, msg.sender, _employeeName, _employeeEmail, _employeeRole, tokenAmount);\r\n    }\r\n}",
  "sourcePath": "D:/ei3tancp/Desktop/DEV/APPROVAL_MATRIX/src/contracts/ApprovalMatrix.sol",
  "compiler": {
    "name": "solc",
    "version": "0.5.16+commit.9c3226ce.Emscripten.clang"
  },
  "schemaVersion": "3.2.5",
  "updatedAt": "2021-02-11T15:15:30.828Z",
  "networkType": "ethereum",
  "devdoc": {
    "methods": {}
  },
  "userdoc": {
    "methods": {}
  }
}