{
  "contractName": "ApprovalMatrix",
  "abi": [
    {
      "inputs": [
        {
          "internalType": "contract Token",
          "name": "_token",
          "type": "address"
        }
      ],
      "payable": false,
      "stateMutability": "nonpayable",
      "type": "constructor"
    },
    {
      "anonymous": false,
      "inputs": [
        {
          "indexed": false,
          "internalType": "uint256",
          "name": "_id",
          "type": "uint256"
        },
        {
          "indexed": false,
          "internalType": "address",
          "name": "_employerBossAdress",
          "type": "address"
        },
        {
          "indexed": false,
          "internalType": "address",
          "name": "_employerAdress",
          "type": "address"
        },
        {
          "indexed": false,
          "internalType": "string",
          "name": "_employeeName",
          "type": "string"
        },
        {
          "indexed": false,
          "internalType": "string",
          "name": "_employeeEmail",
          "type": "string"
        },
        {
          "indexed": false,
          "internalType": "string",
          "name": "_employeeRole",
          "type": "string"
        },
        {
          "indexed": false,
          "internalType": "string",
          "name": "_employeeDivision",
          "type": "string"
        },
        {
          "indexed": false,
          "internalType": "string",
          "name": "_employeeLocation",
          "type": "string"
        },
        {
          "indexed": false,
          "internalType": "uint256",
          "name": "_employeePower",
          "type": "uint256"
        }
      ],
      "name": "employeeAdded",
      "type": "event"
    },
    {
      "constant": true,
      "inputs": [],
      "name": "employeeCount",
      "outputs": [
        {
          "internalType": "uint256",
          "name": "",
          "type": "uint256"
        }
      ],
      "payable": false,
      "stateMutability": "view",
      "type": "function"
    },
    {
      "constant": true,
      "inputs": [
        {
          "internalType": "uint256",
          "name": "",
          "type": "uint256"
        }
      ],
      "name": "employees",
      "outputs": [
        {
          "internalType": "uint256",
          "name": "Id",
          "type": "uint256"
        },
        {
          "internalType": "address",
          "name": "EmployerBossAdress",
          "type": "address"
        },
        {
          "internalType": "address",
          "name": "EmployerAdress",
          "type": "address"
        },
        {
          "internalType": "string",
          "name": "EmployeeName",
          "type": "string"
        },
        {
          "internalType": "string",
          "name": "EmployeeEmail",
          "type": "string"
        },
        {
          "internalType": "string",
          "name": "EmployeeRole",
          "type": "string"
        },
        {
          "internalType": "string",
          "name": "EmployeeDivision",
          "type": "string"
        },
        {
          "internalType": "string",
          "name": "EmployeeLocation",
          "type": "string"
        },
        {
          "internalType": "uint256",
          "name": "EmployeePower",
          "type": "uint256"
        }
      ],
      "payable": false,
      "stateMutability": "view",
      "type": "function"
    },
    {
      "constant": true,
      "inputs": [],
      "name": "name",
      "outputs": [
        {
          "internalType": "string",
          "name": "",
          "type": "string"
        }
      ],
      "payable": false,
      "stateMutability": "view",
      "type": "function"
    },
    {
      "constant": true,
      "inputs": [],
      "name": "rate",
      "outputs": [
        {
          "internalType": "uint256",
          "name": "",
          "type": "uint256"
        }
      ],
      "payable": false,
      "stateMutability": "view",
      "type": "function"
    },
    {
      "constant": true,
      "inputs": [],
      "name": "token",
      "outputs": [
        {
          "internalType": "contract Token",
          "name": "",
          "type": "address"
        }
      ],
      "payable": false,
      "stateMutability": "view",
      "type": "function"
    },
    {
      "constant": false,
      "inputs": [
        {
          "internalType": "address",
          "name": "_employerAdress",
          "type": "address"
        },
        {
          "internalType": "string",
          "name": "_employeeName",
          "type": "string"
        },
        {
          "internalType": "string",
          "name": "_employeeEmail",
          "type": "string"
        },
        {
          "internalType": "string",
          "name": "_employeeRole",
          "type": "string"
        },
        {
          "internalType": "string",
          "name": "_employeeDivision",
          "type": "string"
        },
        {
          "internalType": "string",
          "name": "_employeeLocation",
          "type": "string"
        }
      ],
      "name": "AddEmployee",
      "outputs": [],
      "payable": true,
      "stateMutability": "payable",
      "type": "function"
    }
  ],
  "bytecode": "0x60806040526040518060400160405280600f81526020017f417070726f76616c204d617472697800000000000000000000000000000000008152506000908051906020019062000051929190620000e3565b5060646002553480156200006457600080fd5b50604051620014eb380380620014eb833981810160405260208110156200008a57600080fd5b810190808051906020019092919050505080600160006101000a81548173ffffffffffffffffffffffffffffffffffffffff021916908373ffffffffffffffffffffffffffffffffffffffff1602179055505062000192565b828054600181600116156101000203166002900490600052602060002090601f016020900481019282601f106200012657805160ff191683800117855562000157565b8280016001018555821562000157579182015b828111156200015657825182559160200191906001019062000139565b5b5090506200016691906200016a565b5090565b6200018f91905b808211156200018b57600081600090555060010162000171565b5090565b90565b61134980620001a26000396000f3fe6080604052600436106100555760003560e01c806306fdde031461005a5780632c4e722e146100ea5780634739326b146101155780639047bf58146103ed57806395f4108614610418578063fc0c546a1461074f575b600080fd5b34801561006657600080fd5b5061006f6107a6565b6040518080602001828103825283818151815260200191508051906020019080838360005b838110156100af578082015181840152602081019050610094565b50505050905090810190601f1680156100dc5780820380516001836020036101000a031916815260200191505b509250505060405180910390f35b3480156100f657600080fd5b506100ff610844565b6040518082815260200191505060405180910390f35b34801561012157600080fd5b5061014e6004803603602081101561013857600080fd5b810190808035906020019092919050505061084a565b604051808a81526020018973ffffffffffffffffffffffffffffffffffffffff1673ffffffffffffffffffffffffffffffffffffffff1681526020018873ffffffffffffffffffffffffffffffffffffffff1673ffffffffffffffffffffffffffffffffffffffff168152602001806020018060200180602001806020018060200187815260200186810386528c818151815260200191508051906020019080838360005b8381101561020e5780820151818401526020810190506101f3565b50505050905090810190601f16801561023b5780820380516001836020036101000a031916815260200191505b5086810385528b818151815260200191508051906020019080838360005b83811015610274578082015181840152602081019050610259565b50505050905090810190601f1680156102a15780820380516001836020036101000a031916815260200191505b5086810384528a818151815260200191508051906020019080838360005b838110156102da5780820151818401526020810190506102bf565b50505050905090810190601f1680156103075780820380516001836020036101000a031916815260200191505b50868103835289818151815260200191508051906020019080838360005b83811015610340578082015181840152602081019050610325565b50505050905090810190601f16801561036d5780820380516001836020036101000a031916815260200191505b50868103825288818151815260200191508051906020019080838360005b838110156103a657808201518184015260208101905061038b565b50505050905090810190601f1680156103d35780820380516001836020036101000a031916815260200191505b509e50505050505050505050505050505060405180910390f35b3480156103f957600080fd5b50610402610bd0565b6040518082815260200191505060405180910390f35b61074d600480360360c081101561042e57600080fd5b81019080803573ffffffffffffffffffffffffffffffffffffffff1690602001909291908035906020019064010000000081111561046b57600080fd5b82018360208201111561047d57600080fd5b8035906020019184600183028401116401000000008311171561049f57600080fd5b91908080601f016020809104026020016040519081016040528093929190818152602001838380828437600081840152601f19601f8201169050808301925050505050505091929192908035906020019064010000000081111561050257600080fd5b82018360208201111561051457600080fd5b8035906020019184600183028401116401000000008311171561053657600080fd5b91908080601f016020809104026020016040519081016040528093929190818152602001838380828437600081840152601f19601f8201169050808301925050505050505091929192908035906020019064010000000081111561059957600080fd5b8201836020820111156105ab57600080fd5b803590602001918460018302840111640100000000831117156105cd57600080fd5b91908080601f016020809104026020016040519081016040528093929190818152602001838380828437600081840152601f19601f8201169050808301925050505050505091929192908035906020019064010000000081111561063057600080fd5b82018360208201111561064257600080fd5b8035906020019184600183028401116401000000008311171561066457600080fd5b91908080601f016020809104026020016040519081016040528093929190818152602001838380828437600081840152601f19601f820116905080830192505050505050509192919290803590602001906401000000008111156106c757600080fd5b8201836020820111156106d957600080fd5b803590602001918460018302840111640100000000831117156106fb57600080fd5b91908080601f016020809104026020016040519081016040528093929190818152602001838380828437600081840152601f19601f820116905080830192505050505050509192919290505050610bd6565b005b34801561075b57600080fd5b50610764611249565b604051808273ffffffffffffffffffffffffffffffffffffffff1673ffffffffffffffffffffffffffffffffffffffff16815260200191505060405180910390f35b60008054600181600116156101000203166002900480601f01602080910402602001604051908101604052809291908181526020018280546001816001161561010002031660029004801561083c5780601f106108115761010080835404028352916020019161083c565b820191906000526020600020905b81548152906001019060200180831161081f57829003601f168201915b505050505081565b60025481565b60036020528060005260406000206000915090508060000154908060010160009054906101000a900473ffffffffffffffffffffffffffffffffffffffff16908060020160009054906101000a900473ffffffffffffffffffffffffffffffffffffffff1690806003018054600181600116156101000203166002900480601f0160208091040260200160405190810160405280929190818152602001828054600181600116156101000203166002900480156109485780601f1061091d57610100808354040283529160200191610948565b820191906000526020600020905b81548152906001019060200180831161092b57829003601f168201915b505050505090806004018054600181600116156101000203166002900480601f0160208091040260200160405190810160405280929190818152602001828054600181600116156101000203166002900480156109e65780601f106109bb576101008083540402835291602001916109e6565b820191906000526020600020905b8154815290600101906020018083116109c957829003601f168201915b505050505090806005018054600181600116156101000203166002900480601f016020809104026020016040519081016040528092919081815260200182805460018160011615610100020316600290048015610a845780601f10610a5957610100808354040283529160200191610a84565b820191906000526020600020905b815481529060010190602001808311610a6757829003601f168201915b505050505090806006018054600181600116156101000203166002900480601f016020809104026020016040519081016040528092919081815260200182805460018160011615610100020316600290048015610b225780601f10610af757610100808354040283529160200191610b22565b820191906000526020600020905b815481529060010190602001808311610b0557829003601f168201915b505050505090806007018054600181600116156101000203166002900480601f016020809104026020016040519081016040528092919081815260200182805460018160011615610100020316600290048015610bc05780601f10610b9557610100808354040283529160200191610bc0565b820191906000526020600020905b815481529060010190602001808311610ba357829003601f168201915b5050505050908060080154905089565b60045481565b60006002543402905080600160009054906101000a900473ffffffffffffffffffffffffffffffffffffffff1673ffffffffffffffffffffffffffffffffffffffff166370a08231306040518263ffffffff1660e01b8152600401808273ffffffffffffffffffffffffffffffffffffffff1673ffffffffffffffffffffffffffffffffffffffff16815260200191505060206040518083038186803b158015610c7f57600080fd5b505afa158015610c93573d6000803e3d6000fd5b505050506040513d6020811015610ca957600080fd5b81019080805190602001909291905050501015610cc557600080fd5b600160009054906101000a900473ffffffffffffffffffffffffffffffffffffffff1673ffffffffffffffffffffffffffffffffffffffff1663a9059cbb88836040518363ffffffff1660e01b8152600401808373ffffffffffffffffffffffffffffffffffffffff1673ffffffffffffffffffffffffffffffffffffffff16815260200182815260200192505050602060405180830381600087803b158015610d6e57600080fd5b505af1158015610d82573d6000803e3d6000fd5b505050506040513d6020811015610d9857600080fd5b81019080805190602001909291905050505060046000815480929190600101919050555060405180610120016040528060045481526020013373ffffffffffffffffffffffffffffffffffffffff1681526020018873ffffffffffffffffffffffffffffffffffffffff168152602001878152602001868152602001858152602001848152602001838152602001828152506003600060045481526020019081526020016000206000820151816000015560208201518160010160006101000a81548173ffffffffffffffffffffffffffffffffffffffff021916908373ffffffffffffffffffffffffffffffffffffffff16021790555060408201518160020160006101000a81548173ffffffffffffffffffffffffffffffffffffffff021916908373ffffffffffffffffffffffffffffffffffffffff1602179055506060820151816003019080519060200190610ef392919061126f565b506080820151816004019080519060200190610f1092919061126f565b5060a0820151816005019080519060200190610f2d92919061126f565b5060c0820151816006019080519060200190610f4a92919061126f565b5060e0820151816007019080519060200190610f6792919061126f565b5061010082015181600801559050507fe8ba940443613b1b92c773deb3a35ff97ea5a5a4c46da2facc0f59ef1fbdafc46004543389898989898989604051808a81526020018973ffffffffffffffffffffffffffffffffffffffff1673ffffffffffffffffffffffffffffffffffffffff1681526020018873ffffffffffffffffffffffffffffffffffffffff1673ffffffffffffffffffffffffffffffffffffffff168152602001806020018060200180602001806020018060200187815260200186810386528c818151815260200191508051906020019080838360005b83811015611062578082015181840152602081019050611047565b50505050905090810190601f16801561108f5780820380516001836020036101000a031916815260200191505b5086810385528b818151815260200191508051906020019080838360005b838110156110c85780820151818401526020810190506110ad565b50505050905090810190601f1680156110f55780820380516001836020036101000a031916815260200191505b5086810384528a818151815260200191508051906020019080838360005b8381101561112e578082015181840152602081019050611113565b50505050905090810190601f16801561115b5780820380516001836020036101000a031916815260200191505b50868103835289818151815260200191508051906020019080838360005b83811015611194578082015181840152602081019050611179565b50505050905090810190601f1680156111c15780820380516001836020036101000a031916815260200191505b50868103825288818151815260200191508051906020019080838360005b838110156111fa5780820151818401526020810190506111df565b50505050905090810190601f1680156112275780820380516001836020036101000a031916815260200191505b509e50505050505050505050505050505060405180910390a150505050505050565b600160009054906101000a900473ffffffffffffffffffffffffffffffffffffffff1681565b828054600181600116156101000203166002900490600052602060002090601f016020900481019282601f106112b057805160ff19168380011785556112de565b828001600101855582156112de579182015b828111156112dd5782518255916020019190600101906112c2565b5b5090506112eb91906112ef565b5090565b61131191905b8082111561130d5760008160009055506001016112f5565b5090565b9056fea265627a7a72315820653507bfed527dea45e421c0abd291984d322a3104a1a2065ffea2905c65524464736f6c63430005100032",
  "source": "pragma solidity ^0.5.0;\r\n\r\nimport \"./Token.sol\";\r\n\r\ncontract ApprovalMatrix {\r\n    string  public name = \"Approval Matrix\";\r\n\r\n    Token public token;\r\n    uint public rate = 100;\r\n\r\n    mapping(uint => EmployeeMatrix) public employees;\r\n    // Store employee Count\r\n    uint public employeeCount;\r\n\r\n    struct EmployeeMatrix {\r\n        uint Id;\r\n        address EmployerBossAdress;\r\n        address EmployerAdress;\r\n        string EmployeeName;\r\n        string EmployeeEmail;\r\n        string EmployeeRole;\r\n        string EmployeeDivision;\r\n        string EmployeeLocation;\r\n        uint EmployeePower;\r\n    }\r\n\r\n    event employeeAdded(\r\n            uint _id,\r\n            address _employerBossAdress,\r\n    \t    address _employerAdress,\r\n    \t    string _employeeName,\r\n    \t    string _employeeEmail,\r\n            string _employeeRole,\r\n    \t    string _employeeDivision,\r\n            string _employeeLocation,\r\n    \t    uint _employeePower\r\n\r\n    );\r\n\r\n    constructor(Token _token) public {\r\n        token = _token;\r\n    }\r\n\r\n    function AddEmployee(address _employerAdress, string memory _employeeName, string memory _employeeEmail, string memory _employeeRole, string memory _employeeDivision, string memory _employeeLocation) public payable {\r\n        // Calculate the number of tokens for Employer (i.e.: EmployeePower)\r\n        uint tokenAmount = msg.value * rate;\r\n        \r\n        // Require that ApprovalMatrix has enough tokens\r\n        require(token.balanceOf(address(this)) >= tokenAmount);\r\n\r\n        // Transfer tokens to the user\r\n        token.transfer(_employerAdress, tokenAmount);\r\n\r\n        //increment employees count\r\n        employeeCount ++;\r\n\r\n        //Add the employer profile to the contract\r\n        employees[employeeCount] = EmployeeMatrix(employeeCount, msg.sender, _employerAdress, _employeeName, _employeeEmail, _employeeRole,_employeeDivision, _employeeLocation, tokenAmount);\r\n\r\n        // Trigger event\r\n        emit employeeAdded(employeeCount, msg.sender, _employerAdress, _employeeName, _employeeEmail, _employeeRole, _employeeDivision, _employeeLocation, tokenAmount);\r\n    }\r\n}",
  "sourcePath": "D:/ei3tancp/Desktop/DEV/APPROVAL_MATRIX/src/contracts/ApprovalMatrix.sol",
  "compiler": {
    "name": "solc",
    "version": "0.5.16+commit.9c3226ce.Emscripten.clang"
  },
  "schemaVersion": "3.2.5",
  "updatedAt": "2021-02-15T15:26:20.440Z",
  "networkType": "ethereum",
  "devdoc": {
    "methods": {}
  },
  "userdoc": {
    "methods": {}
  }
}