{
  "contractName": "ApprovalMatrix",
  "abi": [
    {
      "inputs": [],
      "payable": false,
      "stateMutability": "nonpayable",
      "type": "constructor"
    },
    {
      "constant": true,
      "inputs": [
        {
          "internalType": "uint256",
          "name": "",
          "type": "uint256"
        }
      ],
      "name": "EmployeeMatrix",
      "outputs": [
        {
          "internalType": "address",
          "name": "",
          "type": "address"
        }
      ],
      "payable": false,
      "stateMutability": "view",
      "type": "function"
    },
    {
      "constant": true,
      "inputs": [],
      "name": "name",
      "outputs": [
        {
          "internalType": "string",
          "name": "",
          "type": "string"
        }
      ],
      "payable": false,
      "stateMutability": "view",
      "type": "function"
    },
    {
      "constant": true,
      "inputs": [],
      "name": "owner",
      "outputs": [
        {
          "internalType": "address",
          "name": "",
          "type": "address"
        }
      ],
      "payable": false,
      "stateMutability": "view",
      "type": "function"
    },
    {
      "constant": false,
      "inputs": [
        {
          "internalType": "uint256",
          "name": "account",
          "type": "uint256"
        },
        {
          "internalType": "string",
          "name": "EmployeeName",
          "type": "string"
        },
        {
          "internalType": "string",
          "name": "EmployeeEmail",
          "type": "string"
        },
        {
          "internalType": "string",
          "name": "EmployeeRole",
          "type": "string"
        }
      ],
      "name": "AddEmployee",
      "outputs": [],
      "payable": false,
      "stateMutability": "nonpayable",
      "type": "function"
    }
  ],
  "bytecode": "0x60806040526040518060400160405280600e81526020017f417070726f76616c4d61747269780000000000000000000000000000000000008152506000908051906020019061004f9291906100a3565b5034801561005c57600080fd5b5033600160006101000a81548173ffffffffffffffffffffffffffffffffffffffff021916908373ffffffffffffffffffffffffffffffffffffffff160217905550610148565b828054600181600116156101000203166002900490600052602060002090601f016020900481019282601f106100e457805160ff1916838001178555610112565b82800160010185558215610112579182015b828111156101115782518255916020019190600101906100f6565b5b50905061011f9190610123565b5090565b61014591905b80821115610141576000816000905550600101610129565b5090565b90565b61057d806101576000396000f3fe608060405234801561001057600080fd5b506004361061004c5760003560e01c806306fdde03146100515780636ba3156a146100d45780637524f37f146101425780638da5cb5b14610335575b600080fd5b61005961037f565b6040518080602001828103825283818151815260200191508051906020019080838360005b8381101561009957808201518184015260208101905061007e565b50505050905090810190601f1680156100c65780820380516001836020036101000a031916815260200191505b509250505060405180910390f35b610100600480360360208110156100ea57600080fd5b810190808035906020019092919050505061041d565b604051808273ffffffffffffffffffffffffffffffffffffffff1673ffffffffffffffffffffffffffffffffffffffff16815260200191505060405180910390f35b6103336004803603608081101561015857600080fd5b81019080803590602001909291908035906020019064010000000081111561017f57600080fd5b82018360208201111561019157600080fd5b803590602001918460018302840111640100000000831117156101b357600080fd5b91908080601f016020809104026020016040519081016040528093929190818152602001838380828437600081840152601f19601f8201169050808301925050505050505091929192908035906020019064010000000081111561021657600080fd5b82018360208201111561022857600080fd5b8035906020019184600183028401116401000000008311171561024a57600080fd5b91908080601f016020809104026020016040519081016040528093929190818152602001838380828437600081840152601f19601f820116905080830192505050505050509192919290803590602001906401000000008111156102ad57600080fd5b8201836020820111156102bf57600080fd5b803590602001918460018302840111640100000000831117156102e157600080fd5b91908080601f016020809104026020016040519081016040528093929190818152602001838380828437600081840152601f19601f820116905080830192505050505050509192919290505050610459565b005b61033d610522565b604051808273ffffffffffffffffffffffffffffffffffffffff1673ffffffffffffffffffffffffffffffffffffffff16815260200191505060405180910390f35b60008054600181600116156101000203166002900480601f0160208091040260200160405190810160405280929190818152602001828054600181600116156101000203166002900480156104155780601f106103ea57610100808354040283529160200191610415565b820191906000526020600020905b8154815290600101906020018083116103f857829003601f168201915b505050505081565b6002818154811061042a57fe5b906000526020600020016000915054906101000a900473ffffffffffffffffffffffffffffffffffffffff1681565b3373ffffffffffffffffffffffffffffffffffffffff16600160009054906101000a900473ffffffffffffffffffffffffffffffffffffffff1673ffffffffffffffffffffffffffffffffffffffff161461051c576040517f08c379a00000000000000000000000000000000000000000000000000000000081526004018080602001828103825260158152602001807f796f7520617265206e6f7420746865206f776e6572000000000000000000000081525060200191505060405180910390fd5b50505050565b600160009054906101000a900473ffffffffffffffffffffffffffffffffffffffff168156fea265627a7a72315820e3d330d8043cfe04181b2e149eb6117dec8e1a639572ea398f8b087df996bf6964736f6c63430005100032",
  "source": "pragma solidity ^0.5.0;\n\ncontract ApprovalMatrix {\nstring  public name = \"ApprovalMatrix\";\naddress public owner;\n\naddress[] public EmployeeMatrix;\n/*mapping(address => uint) public account;\nmapping(address => string) public EmployeeName;\nmapping(address => string) public EmployeeEmail;\nmapping(address => string) public EmployeeRole;\nmapping(address => uint256) public EmployeeMaxBaget; */\n\n\n/*event AddEmployee(\n\t    address account,\n\t    string EmployeeName,\n\t    string EmployeeEmail,\n\t    string EmployeeRole,\n\t    uint maxBagetApprove \n\n); */\n\nconstructor() public {\n        owner = msg.sender;\n    }\n\n\nfunction AddEmployee(uint account, string memory EmployeeName, string memory EmployeeEmail, string memory EmployeeRole) public {\nrequire(owner == msg.sender, \"you are not the owner\");\n/*\n\tEmployeeMatrix.push(\n                account,\n                EmployeeName,\n                EmployeeEmail,\n                EmployeeRole,\n                msg.value\n            \n    ); */\n}\n\n\n}",
  "sourcePath": "/Users/tanpao/dev/Blockchain/ApprovalMatrix/src/contracts/ApprovalMatrix.sol",
  "compiler": {
    "name": "solc",
    "version": "0.5.16+commit.9c3226ce.Emscripten.clang"
  },
  "schemaVersion": "3.2.3",
  "updatedAt": "2021-02-04T15:09:13.481Z",
  "devdoc": {
    "methods": {}
  },
  "userdoc": {
    "methods": {}
  }
}