{
  "contractName": "ApprovalMatrix",
  "abi": [
    {
      "inputs": [
        {
          "internalType": "contract Token",
          "name": "_token",
          "type": "address"
        }
      ],
      "stateMutability": "nonpayable",
      "type": "constructor"
    },
    {
      "anonymous": false,
      "inputs": [
        {
          "indexed": false,
          "internalType": "uint256",
          "name": "_id",
          "type": "uint256"
        },
        {
          "indexed": false,
          "internalType": "address",
          "name": "_employerBossAddress",
          "type": "address"
        },
        {
          "indexed": false,
          "internalType": "address",
          "name": "_employerAddress",
          "type": "address"
        },
        {
          "indexed": false,
          "internalType": "string",
          "name": "_employeeName",
          "type": "string"
        },
        {
          "indexed": false,
          "internalType": "string",
          "name": "_employeeEmail",
          "type": "string"
        },
        {
          "indexed": false,
          "internalType": "string",
          "name": "_employeeRole",
          "type": "string"
        },
        {
          "indexed": false,
          "internalType": "string",
          "name": "_employeeDivision",
          "type": "string"
        },
        {
          "indexed": false,
          "internalType": "string",
          "name": "_employeeLocation",
          "type": "string"
        },
        {
          "indexed": false,
          "internalType": "uint256",
          "name": "_employeePower",
          "type": "uint256"
        }
      ],
      "name": "employeeAdded",
      "type": "event"
    },
    {
      "inputs": [],
      "name": "employeeCount",
      "outputs": [
        {
          "internalType": "uint256",
          "name": "",
          "type": "uint256"
        }
      ],
      "stateMutability": "view",
      "type": "function",
      "constant": true
    },
    {
      "inputs": [
        {
          "internalType": "uint256",
          "name": "",
          "type": "uint256"
        }
      ],
      "name": "employees",
      "outputs": [
        {
          "internalType": "uint256",
          "name": "Id",
          "type": "uint256"
        },
        {
          "internalType": "address",
          "name": "EmployerBossAddress",
          "type": "address"
        },
        {
          "internalType": "address",
          "name": "EmployerAddress",
          "type": "address"
        },
        {
          "internalType": "string",
          "name": "EmployeeName",
          "type": "string"
        },
        {
          "internalType": "string",
          "name": "EmployeeEmail",
          "type": "string"
        },
        {
          "internalType": "string",
          "name": "EmployeeRole",
          "type": "string"
        },
        {
          "internalType": "string",
          "name": "EmployeeDivision",
          "type": "string"
        },
        {
          "internalType": "string",
          "name": "EmployeeLocation",
          "type": "string"
        },
        {
          "internalType": "uint256",
          "name": "EmployeePower",
          "type": "uint256"
        }
      ],
      "stateMutability": "view",
      "type": "function",
      "constant": true
    },
    {
      "inputs": [],
      "name": "name",
      "outputs": [
        {
          "internalType": "string",
          "name": "",
          "type": "string"
        }
      ],
      "stateMutability": "view",
      "type": "function",
      "constant": true
    },
    {
      "inputs": [],
      "name": "token",
      "outputs": [
        {
          "internalType": "contract Token",
          "name": "",
          "type": "address"
        }
      ],
      "stateMutability": "view",
      "type": "function",
      "constant": true
    },
    {
      "inputs": [
        {
          "internalType": "address",
          "name": "_employerAddress",
          "type": "address"
        },
        {
          "internalType": "string",
          "name": "_employeeName",
          "type": "string"
        },
        {
          "internalType": "string",
          "name": "_employeeEmail",
          "type": "string"
        },
        {
          "internalType": "string",
          "name": "_employeeRole",
          "type": "string"
        },
        {
          "internalType": "string",
          "name": "_employeeDivision",
          "type": "string"
        },
        {
          "internalType": "string",
          "name": "_employeeLocation",
          "type": "string"
        }
      ],
      "name": "AddEmployee",
      "outputs": [],
      "stateMutability": "payable",
      "type": "function",
      "payable": true
    }
  ],
  "bytecode": "0x60806040526040518060400160405280600f81526020017f417070726f76616c204d617472697800000000000000000000000000000000008152506000908051906020019062000051929190620000de565b503480156200005f57600080fd5b506040516200145b3803806200145b833981810160405260208110156200008557600080fd5b810190808051906020019092919050505080600160006101000a81548173ffffffffffffffffffffffffffffffffffffffff021916908373ffffffffffffffffffffffffffffffffffffffff1602179055505062000184565b828054600181600116156101000203166002900490600052602060002090601f016020900481019282601f106200012157805160ff191683800117855562000152565b8280016001018555821562000152579182015b828111156200015157825182559160200191906001019062000134565b5b50905062000161919062000165565b5090565b5b808211156200018057600081600090555060010162000166565b5090565b6112c780620001946000396000f3fe60806040526004361061004a5760003560e01c806306fdde031461004f5780634739326b146100df5780639047bf581461038b57806395f41086146103b6578063fc0c546a146106ed575b600080fd5b34801561005b57600080fd5b5061006461072e565b6040518080602001828103825283818151815260200191508051906020019080838360005b838110156100a4578082015181840152602081019050610089565b50505050905090810190601f1680156100d15780820380516001836020036101000a031916815260200191505b509250505060405180910390f35b3480156100eb57600080fd5b506101186004803603602081101561010257600080fd5b81019080803590602001909291905050506107cc565b604051808a81526020018973ffffffffffffffffffffffffffffffffffffffff1681526020018873ffffffffffffffffffffffffffffffffffffffff168152602001806020018060200180602001806020018060200187815260200186810386528c818151815260200191508051906020019080838360005b838110156101ac578082015181840152602081019050610191565b50505050905090810190601f1680156101d95780820380516001836020036101000a031916815260200191505b5086810385528b818151815260200191508051906020019080838360005b838110156102125780820151818401526020810190506101f7565b50505050905090810190601f16801561023f5780820380516001836020036101000a031916815260200191505b5086810384528a818151815260200191508051906020019080838360005b8381101561027857808201518184015260208101905061025d565b50505050905090810190601f1680156102a55780820380516001836020036101000a031916815260200191505b50868103835289818151815260200191508051906020019080838360005b838110156102de5780820151818401526020810190506102c3565b50505050905090810190601f16801561030b5780820380516001836020036101000a031916815260200191505b50868103825288818151815260200191508051906020019080838360005b83811015610344578082015181840152602081019050610329565b50505050905090810190601f1680156103715780820380516001836020036101000a031916815260200191505b509e50505050505050505050505050505060405180910390f35b34801561039757600080fd5b506103a0610b52565b6040518082815260200191505060405180910390f35b6106eb600480360360c08110156103cc57600080fd5b81019080803573ffffffffffffffffffffffffffffffffffffffff1690602001909291908035906020019064010000000081111561040957600080fd5b82018360208201111561041b57600080fd5b8035906020019184600183028401116401000000008311171561043d57600080fd5b91908080601f016020809104026020016040519081016040528093929190818152602001838380828437600081840152601f19601f820116905080830192505050505050509192919290803590602001906401000000008111156104a057600080fd5b8201836020820111156104b257600080fd5b803590602001918460018302840111640100000000831117156104d457600080fd5b91908080601f016020809104026020016040519081016040528093929190818152602001838380828437600081840152601f19601f8201169050808301925050505050505091929192908035906020019064010000000081111561053757600080fd5b82018360208201111561054957600080fd5b8035906020019184600183028401116401000000008311171561056b57600080fd5b91908080601f016020809104026020016040519081016040528093929190818152602001838380828437600081840152601f19601f820116905080830192505050505050509192919290803590602001906401000000008111156105ce57600080fd5b8201836020820111156105e057600080fd5b8035906020019184600183028401116401000000008311171561060257600080fd5b91908080601f016020809104026020016040519081016040528093929190818152602001838380828437600081840152601f19601f8201169050808301925050505050505091929192908035906020019064010000000081111561066557600080fd5b82018360208201111561067757600080fd5b8035906020019184600183028401116401000000008311171561069957600080fd5b91908080601f016020809104026020016040519081016040528093929190818152602001838380828437600081840152601f19601f820116905080830192505050505050509192919290505050610b58565b005b3480156106f957600080fd5b506107026111ce565b604051808273ffffffffffffffffffffffffffffffffffffffff16815260200191505060405180910390f35b60008054600181600116156101000203166002900480601f0160208091040260200160405190810160405280929190818152602001828054600181600116156101000203166002900480156107c45780601f10610799576101008083540402835291602001916107c4565b820191906000526020600020905b8154815290600101906020018083116107a757829003601f168201915b505050505081565b60026020528060005260406000206000915090508060000154908060010160009054906101000a900473ffffffffffffffffffffffffffffffffffffffff16908060020160009054906101000a900473ffffffffffffffffffffffffffffffffffffffff1690806003018054600181600116156101000203166002900480601f0160208091040260200160405190810160405280929190818152602001828054600181600116156101000203166002900480156108ca5780601f1061089f576101008083540402835291602001916108ca565b820191906000526020600020905b8154815290600101906020018083116108ad57829003601f168201915b505050505090806004018054600181600116156101000203166002900480601f0160208091040260200160405190810160405280929190818152602001828054600181600116156101000203166002900480156109685780601f1061093d57610100808354040283529160200191610968565b820191906000526020600020905b81548152906001019060200180831161094b57829003601f168201915b505050505090806005018054600181600116156101000203166002900480601f016020809104026020016040519081016040528092919081815260200182805460018160011615610100020316600290048015610a065780601f106109db57610100808354040283529160200191610a06565b820191906000526020600020905b8154815290600101906020018083116109e957829003601f168201915b505050505090806006018054600181600116156101000203166002900480601f016020809104026020016040519081016040528092919081815260200182805460018160011615610100020316600290048015610aa45780601f10610a7957610100808354040283529160200191610aa4565b820191906000526020600020905b815481529060010190602001808311610a8757829003601f168201915b505050505090806007018054600181600116156101000203166002900480601f016020809104026020016040519081016040528092919081815260200182805460018160011615610100020316600290048015610b425780601f10610b1757610100808354040283529160200191610b42565b820191906000526020600020905b815481529060010190602001808311610b2557829003601f168201915b5050505050908060080154905089565b60035481565b34600160009054906101000a900473ffffffffffffffffffffffffffffffffffffffff1673ffffffffffffffffffffffffffffffffffffffff166370a08231336040518263ffffffff1660e01b8152600401808273ffffffffffffffffffffffffffffffffffffffff16815260200191505060206040518083038186803b158015610be257600080fd5b505afa158015610bf6573d6000803e3d6000fd5b505050506040513d6020811015610c0c57600080fd5b81019080805190602001909291905050501015610c2857600080fd5b600160009054906101000a900473ffffffffffffffffffffffffffffffffffffffff1673ffffffffffffffffffffffffffffffffffffffff166323b872dd3388346040518463ffffffff1660e01b8152600401808473ffffffffffffffffffffffffffffffffffffffff1681526020018373ffffffffffffffffffffffffffffffffffffffff1681526020018281526020019350505050602060405180830381600087803b158015610cd957600080fd5b505af1158015610ced573d6000803e3d6000fd5b505050506040513d6020811015610d0357600080fd5b8101908080519060200190929190505050503373ffffffffffffffffffffffffffffffffffffffff166108fc349081150290604051600060405180830381858888f19350505050158015610d5b573d6000803e3d6000fd5b5060036000815480929190600101919050555060405180610120016040528060035481526020013373ffffffffffffffffffffffffffffffffffffffff1681526020018773ffffffffffffffffffffffffffffffffffffffff168152602001868152602001858152602001848152602001838152602001828152602001348152506002600060035481526020019081526020016000206000820151816000015560208201518160010160006101000a81548173ffffffffffffffffffffffffffffffffffffffff021916908373ffffffffffffffffffffffffffffffffffffffff16021790555060408201518160020160006101000a81548173ffffffffffffffffffffffffffffffffffffffff021916908373ffffffffffffffffffffffffffffffffffffffff1602179055506060820151816003019080519060200190610ea59291906111f4565b506080820151816004019080519060200190610ec29291906111f4565b5060a0820151816005019080519060200190610edf9291906111f4565b5060c0820151816006019080519060200190610efc9291906111f4565b5060e0820151816007019080519060200190610f199291906111f4565b5061010082015181600801559050507fe8ba940443613b1b92c773deb3a35ff97ea5a5a4c46da2facc0f59ef1fbdafc46003543388888888888834604051808a81526020018973ffffffffffffffffffffffffffffffffffffffff1681526020018873ffffffffffffffffffffffffffffffffffffffff168152602001806020018060200180602001806020018060200187815260200186810386528c818151815260200191508051906020019080838360005b83811015610fe8578082015181840152602081019050610fcd565b50505050905090810190601f1680156110155780820380516001836020036101000a031916815260200191505b5086810385528b818151815260200191508051906020019080838360005b8381101561104e578082015181840152602081019050611033565b50505050905090810190601f16801561107b5780820380516001836020036101000a031916815260200191505b5086810384528a818151815260200191508051906020019080838360005b838110156110b4578082015181840152602081019050611099565b50505050905090810190601f1680156110e15780820380516001836020036101000a031916815260200191505b50868103835289818151815260200191508051906020019080838360005b8381101561111a5780820151818401526020810190506110ff565b50505050905090810190601f1680156111475780820380516001836020036101000a031916815260200191505b50868103825288818151815260200191508051906020019080838360005b83811015611180578082015181840152602081019050611165565b50505050905090810190601f1680156111ad5780820380516001836020036101000a031916815260200191505b509e50505050505050505050505050505060405180910390a1505050505050565b600160009054906101000a900473ffffffffffffffffffffffffffffffffffffffff1681565b828054600181600116156101000203166002900490600052602060002090601f016020900481019282601f1061123557805160ff1916838001178555611263565b82800160010185558215611263579182015b82811115611262578251825591602001919060010190611247565b5b5090506112709190611274565b5090565b5b8082111561128d576000816000905550600101611275565b509056fea2646970667358221220486b1007fd0c1a1e711b18fd186006ebe888538974d5adf1f36aa7e390ddaeb464736f6c634300060c0033",
  "immutableReferences": {},
  "source": "pragma solidity ^0.6.0;\r\n\r\nimport \"./Token.sol\";\r\n\r\ncontract ApprovalMatrix {\r\n    string  public name = \"Approval Matrix\";\r\n\r\n    Token public token;\r\n\r\n    mapping(uint => EmployeeMatrix) public employees;\r\n    // Store employee Count\r\n    uint public employeeCount;\r\n\r\n    struct EmployeeMatrix {\r\n        uint Id;\r\n        address EmployerBossAddress;\r\n        address EmployerAddress;\r\n        string EmployeeName;\r\n        string EmployeeEmail;\r\n        string EmployeeRole;\r\n        string EmployeeDivision;\r\n        string EmployeeLocation;\r\n        uint EmployeePower;\r\n    }\r\n\r\n    event employeeAdded(\r\n            uint _id,\r\n            address _employerBossAddress,\r\n    \t    address _employerAddress,\r\n    \t    string _employeeName,\r\n    \t    string _employeeEmail,\r\n            string _employeeRole,\r\n    \t    string _employeeDivision,\r\n            string _employeeLocation,\r\n    \t    uint _employeePower\r\n\r\n    );\r\n\r\n    constructor(Token _token) public {\r\n        token = _token;\r\n    }\r\n\r\n    function AddEmployee(address _employerAddress, string memory _employeeName, string memory _employeeEmail, string memory _employeeRole, string memory _employeeDivision, string memory _employeeLocation) public payable {\r\n\r\n        // Require that Creator has enough tokens\r\n        require(token.balanceOf(msg.sender) >= msg.value);\r\n\r\n        // Transfer tokens to new Employee\r\n        token.transferFrom(msg.sender, _employerAddress, msg.value);\r\n        msg.sender.transfer(msg.value);\r\n\r\n        //increment employees count\r\n        employeeCount ++;\r\n\r\n        //Add the employer profile to the contract\r\n        employees[employeeCount] = EmployeeMatrix(employeeCount, msg.sender, _employerAddress, _employeeName, _employeeEmail, _employeeRole,_employeeDivision, _employeeLocation, msg.value);\r\n\r\n        // Trigger event\r\n        emit employeeAdded(employeeCount, msg.sender, _employerAddress, _employeeName, _employeeEmail, _employeeRole, _employeeDivision, _employeeLocation, msg.value);\r\n    }\r\n}",
  "sourcePath": "D:/ei3tancp/Desktop/DEV/APPROVAL_MATRIX/src/contracts/ApprovalMatrix.sol",
  "compiler": {
    "name": "solc",
    "version": "0.6.12+commit.27d51765.Emscripten.clang"
  },
  "schemaVersion": "3.2.5",
  "updatedAt": "2021-02-24T14:02:29.379Z",
  "networkType": "ethereum",
  "devdoc": {
    "kind": "dev",
    "methods": {},
    "version": 1
  },
  "userdoc": {
    "kind": "user",
    "methods": {},
    "version": 1
  }
}